{"abi":[{"type":"constructor","inputs":[],"stateMutability":"nonpayable"},{"type":"function","name":"BASE_REPUTATION","inputs":[],"outputs":[{"name":"","type":"uint256","internalType":"uint256"}],"stateMutability":"view"},{"type":"function","name":"MAX_AGENTS","inputs":[],"outputs":[{"name":"","type":"uint256","internalType":"uint256"}],"stateMutability":"view"},{"type":"function","name":"NAME","inputs":[],"outputs":[{"name":"","type":"string","internalType":"string"}],"stateMutability":"view"},{"type":"function","name":"QUORUM_BPS","inputs":[],"outputs":[{"name":"","type":"uint256","internalType":"uint256"}],"stateMutability":"view"},{"type":"function","name":"REWARD_AMOUNT","inputs":[],"outputs":[{"name":"","type":"uint256","internalType":"uint256"}],"stateMutability":"view"},{"type":"function","name":"SLASH_AMOUNT","inputs":[],"outputs":[{"name":"","type":"uint256","internalType":"uint256"}],"stateMutability":"view"},{"type":"function","name":"VERSION","inputs":[],"outputs":[{"name":"","type":"string","internalType":"string"}],"stateMutability":"view"},{"type":"function","name":"VOTING_PERIOD","inputs":[],"outputs":[{"name":"","type":"uint256","internalType":"uint256"}],"stateMutability":"view"},{"type":"function","name":"addSupportedToken","inputs":[{"name":"token","type":"address","internalType":"address"}],"outputs":[],"stateMutability":"nonpayable"},{"type":"function","name":"agentList","inputs":[{"name":"","type":"uint256","internalType":"uint256"}],"outputs":[{"name":"","type":"address","internalType":"address"}],"stateMutability":"view"},{"type":"function","name":"agents","inputs":[{"name":"","type":"address","internalType":"address"}],"outputs":[{"name":"wallet","type":"address","internalType":"address"},{"name":"name","type":"string","internalType":"string"},{"name":"reputation","type":"uint256","internalType":"uint256"},{"name":"totalProposed","type":"uint256","internalType":"uint256"},{"name":"successfulProps","type":"uint256","internalType":"uint256"},{"name":"active","type":"bool","internalType":"bool"},{"name":"joinedAt","type":"uint256","internalType":"uint256"}],"stateMutability":"view"},{"type":"function","name":"allocationHistory","inputs":[{"name":"","type":"uint256","internalType":"uint256"}],"outputs":[{"name":"token","type":"address","internalType":"address"},{"name":"destination","type":"address","internalType":"address"},{"name":"amount","type":"uint256","internalType":"uint256"},{"name":"timestamp","type":"uint256","internalType":"uint256"},{"name":"reason","type":"string","internalType":"string"}],"stateMutability":"view"},{"type":"function","name":"bootstrapAgent","inputs":[{"name":"wallet","type":"address","internalType":"address"},{"name":"name","type":"string","internalType":"string"}],"outputs":[],"stateMutability":"nonpayable"},{"type":"function","name":"deployer","inputs":[],"outputs":[{"name":"","type":"address","internalType":"address"}],"stateMutability":"view"},{"type":"function","name":"deposit","inputs":[{"name":"token","type":"address","internalType":"address"},{"name":"amount","type":"uint256","internalType":"uint256"}],"outputs":[],"stateMutability":"nonpayable"},{"type":"function","name":"finalizeProposal","inputs":[{"name":"id","type":"uint256","internalType":"uint256"}],"outputs":[],"stateMutability":"nonpayable"},{"type":"function","name":"getActiveAgents","inputs":[],"outputs":[{"name":"","type":"address[]","internalType":"address[]"}],"stateMutability":"view"},{"type":"function","name":"getAgentCount","inputs":[],"outputs":[{"name":"","type":"uint256","internalType":"uint256"}],"stateMutability":"view"},{"type":"function","name":"getAllocationHistoryLength","inputs":[],"outputs":[{"name":"","type":"uint256","internalType":"uint256"}],"stateMutability":"view"},{"type":"function","name":"getProposalInfo","inputs":[{"name":"id","type":"uint256","internalType":"uint256"}],"outputs":[{"name":"proposer","type":"address","internalType":"address"},{"name":"pType","type":"uint8","internalType":"enum OrionVault.ProposalType"},{"name":"description","type":"string","internalType":"string"},{"name":"target","type":"address","internalType":"address"},{"name":"token","type":"address","internalType":"address"},{"name":"amount","type":"uint256","internalType":"uint256"},{"name":"votesFor","type":"uint256","internalType":"uint256"},{"name":"votesAgainst","type":"uint256","internalType":"uint256"},{"name":"expiresAt","type":"uint256","internalType":"uint256"},{"name":"status","type":"uint8","internalType":"enum OrionVault.ProposalStatus"}],"stateMutability":"view"},{"type":"function","name":"getProposalStatus","inputs":[{"name":"id","type":"uint256","internalType":"uint256"}],"outputs":[{"name":"","type":"uint8","internalType":"enum OrionVault.ProposalStatus"}],"stateMutability":"view"},{"type":"function","name":"getProposalVotes","inputs":[{"name":"id","type":"uint256","internalType":"uint256"}],"outputs":[{"name":"votesFor","type":"uint256","internalType":"uint256"},{"name":"votesAgainst","type":"uint256","internalType":"uint256"}],"stateMutability":"view"},{"type":"function","name":"getTokenList","inputs":[],"outputs":[{"name":"","type":"address[]","internalType":"address[]"}],"stateMutability":"view"},{"type":"function","name":"hasVoted","inputs":[{"name":"id","type":"uint256","internalType":"uint256"},{"name":"agent","type":"address","internalType":"address"}],"outputs":[{"name":"","type":"bool","internalType":"bool"}],"stateMutability":"view"},{"type":"function","name":"proposalCount","inputs":[],"outputs":[{"name":"","type":"uint256","internalType":"uint256"}],"stateMutability":"view"},{"type":"function","name":"proposals","inputs":[{"name":"","type":"uint256","internalType":"uint256"}],"outputs":[{"name":"id","type":"uint256","internalType":"uint256"},{"name":"proposer","type":"address","internalType":"address"},{"name":"pType","type":"uint8","internalType":"enum OrionVault.ProposalType"},{"name":"description","type":"string","internalType":"string"},{"name":"target","type":"address","internalType":"address"},{"name":"token","type":"address","internalType":"address"},{"name":"amount","type":"uint256","internalType":"uint256"},{"name":"votesFor","type":"uint256","internalType":"uint256"},{"name":"votesAgainst","type":"uint256","internalType":"uint256"},{"name":"createdAt","type":"uint256","internalType":"uint256"},{"name":"expiresAt","type":"uint256","internalType":"uint256"},{"name":"status","type":"uint8","internalType":"enum OrionVault.ProposalStatus"},{"name":"callData","type":"bytes","internalType":"bytes"}],"stateMutability":"view"},{"type":"function","name":"propose","inputs":[{"name":"pType","type":"uint8","internalType":"enum OrionVault.ProposalType"},{"name":"description","type":"string","internalType":"string"},{"name":"target","type":"address","internalType":"address"},{"name":"token","type":"address","internalType":"address"},{"name":"amount","type":"uint256","internalType":"uint256"},{"name":"callData","type":"bytes","internalType":"bytes"}],"outputs":[{"name":"id","type":"uint256","internalType":"uint256"}],"stateMutability":"nonpayable"},{"type":"function","name":"registerAgent","inputs":[{"name":"name","type":"string","internalType":"string"}],"outputs":[],"stateMutability":"nonpayable"},{"type":"function","name":"supportedTokens","inputs":[{"name":"","type":"address","internalType":"address"}],"outputs":[{"name":"","type":"bool","internalType":"bool"}],"stateMutability":"view"},{"type":"function","name":"tokenList","inputs":[{"name":"","type":"uint256","internalType":"uint256"}],"outputs":[{"name":"","type":"address","internalType":"address"}],"stateMutability":"view"},{"type":"function","name":"totalReputation","inputs":[],"outputs":[{"name":"","type":"uint256","internalType":"uint256"}],"stateMutability":"view"},{"type":"function","name":"treasuryBalance","inputs":[{"name":"","type":"address","internalType":"address"}],"outputs":[{"name":"","type":"uint256","internalType":"uint256"}],"stateMutability":"view"},{"type":"function","name":"vote","inputs":[{"name":"id","type":"uint256","internalType":"uint256"},{"name":"support","type":"bool","internalType":"bool"}],"outputs":[],"stateMutability":"nonpayable"},{"type":"event","name":"AgentRegistered","inputs":[{"name":"wallet","type":"address","indexed":true,"internalType":"address"},{"name":"name","type":"string","indexed":false,"internalType":"string"},{"name":"reputation","type":"uint256","indexed":false,"internalType":"uint256"}],"anonymous":false},{"type":"event","name":"AgentRewarded","inputs":[{"name":"wallet","type":"address","indexed":true,"internalType":"address"},{"name":"rewardAmount","type":"uint256","indexed":false,"internalType":"uint256"}],"anonymous":false},{"type":"event","name":"AgentSlashed","inputs":[{"name":"wallet","type":"address","indexed":true,"internalType":"address"},{"name":"slashAmount","type":"uint256","indexed":false,"internalType":"uint256"},{"name":"reason","type":"string","indexed":false,"internalType":"string"}],"anonymous":false},{"type":"event","name":"Deposited","inputs":[{"name":"token","type":"address","indexed":true,"internalType":"address"},{"name":"from","type":"address","indexed":true,"internalType":"address"},{"name":"amount","type":"uint256","indexed":false,"internalType":"uint256"}],"anonymous":false},{"type":"event","name":"ProposalCreated","inputs":[{"name":"id","type":"uint256","indexed":true,"internalType":"uint256"},{"name":"proposer","type":"address","indexed":true,"internalType":"address"},{"name":"pType","type":"uint8","indexed":false,"internalType":"enum OrionVault.ProposalType"},{"name":"description","type":"string","indexed":false,"internalType":"string"}],"anonymous":false},{"type":"event","name":"ProposalExecuted","inputs":[{"name":"id","type":"uint256","indexed":true,"internalType":"uint256"},{"name":"success","type":"bool","indexed":false,"internalType":"bool"}],"anonymous":false},{"type":"event","name":"ProposalRejected","inputs":[{"name":"id","type":"uint256","indexed":true,"internalType":"uint256"}],"anonymous":false},{"type":"event","name":"TokenAdded","inputs":[{"name":"token","type":"address","indexed":true,"internalType":"address"}],"anonymous":false},{"type":"event","name":"VoteCast","inputs":[{"name":"proposalId","type":"uint256","indexed":true,"internalType":"uint256"},{"name":"voter","type":"address","indexed":true,"internalType":"address"},{"name":"support","type":"bool","indexed":false,"internalType":"bool"},{"name":"weight","type":"uint256","indexed":false,"internalType":"uint256"}],"anonymous":false},{"type":"event","name":"Withdrawn","inputs":[{"name":"token","type":"address","indexed":true,"internalType":"address"},{"name":"to","type":"address","indexed":true,"internalType":"address"},{"name":"amount","type":"uint256","indexed":false,"internalType":"uint256"}],"anonymous":false},{"type":"error","name":"ReentrancyGuardReentrantCall","inputs":[]},{"type":"error","name":"SafeERC20FailedOperation","inputs":[{"name":"token","type":"address","internalType":"address"}]}],"bytecode":{"object":"0x60a0806040523460545760017f9b779b17422d0df92223018b32b4d1fa46e071723d6817e2486d003becc55f00553360805261267a908161005982396080518181816102f4015281816105130152610f290152f35b5f80fdfe6080806040526004361015610012575f80fd5b5f3560e01c908163013cf08b14611bd857508063273cbaa014611b4f5780632d2a95851461190c5780632f80c54f146118ca57806337720606146118af578063401853b71461186b57806343859632146118075780634484aa7d146116d357806347c661401461168657806347e7ef241461153d5780634f2b0d4a1461152157806354445ae6146114e95780635652077c1461106557806368c4ac26146110285780636d69fcaf14610f0a57806386b909fd14610de357806391cab63e14610dc6578063956cbab2146109695780639ead7222146108f1578063a3f4df7e146108a4578063a8b21c1b14610888578063ab30be871461086d578063b1610d7e14610851578063bc903cb814610767578063c9479cf2146104d4578063c9d27afe1461033e578063cf84944214610323578063d5f39488146102df578063da35c664146102c2578063e5835241146102a0578063fd66091e146101f3578063ff57ed06146101d65763ffa1ad7414610187575f80fd5b346101d2575f3660031901126101d2576101ce6040516101a8604082611df7565b60058152640312e302e360dc1b6020820152604051918291602083526020830190611e25565b0390f35b5f80fd5b346101d2575f3660031901126101d2576020600454604051908152f35b346101d25760203660031901126101d2576001600160a01b03610214611ef2565b165f525f60205260405f2060018060a01b03815416604051916102458361023e8160018501611d40565b0384611df7565b6002810154906003810154906004810154600660ff60058401541692015492610280604051978897885260e0602089015260e0880190611e25565b94604087015260608601526080850152151560a084015260c08301520390f35b346101d2575f3660031901126101d25760206102ba61223d565b604051908152f35b346101d2575f3660031901126101d2576020600354604051908152f35b346101d2575f3660031901126101d2576040517f00000000000000000000000000000000000000000000000000000000000000006001600160a01b03168152602090f35b346101d2575f3660031901126101d257602060405160648152f35b346101d25760403660031901126101d25760043560243590811515918281036101d257335f525f60205261037b60ff600560405f200154166121c3565b610388600354831061207b565b815f52600260205260405f2060ff600a8201541660058110156104c0576103af901561210b565b6009810154421161048c57335f908152600c8201602081905260409091205460ff1661045757335f90815260209182526040808220805460ff1916600117905591819052206002015491156104425760060161040c8282546120fe565b90555b60405192835260208301527fcbdf6214089cba887ecbf35a0b6a734589959c9763342c756bb2a80ca2bc9f6e60403393a3005b6007016104508282546120fe565b905561040f565b60405162461bcd60e51b815260206004820152600d60248201526c105b1c9958591e481d9bdd1959609a1b6044820152606490fd5b60405162461bcd60e51b815260206004820152600c60248201526b159bdd1a5b99c8195b99195960a21b6044820152606490fd5b634e487b7160e01b5f52602160045260245ffd5b346101d25760403660031901126101d2576104ed611ef2565b6024356001600160401b0381116101d25761050c903690600401611e98565b90610541337f00000000000000000000000000000000000000000000000000000000000000006001600160a01b031614612163565b60018060a01b03831691825f525f60205261056660ff600560405f2001541615611f08565b610574601460015410611f49565b6040519361058185611dc1565b83855261058f368385611f82565b946020810195865260408101956103e8875260608201965f885260808301975f895260a08401916001835260c0850193428552895f525f60205260405f209560018060a01b039060018060a01b03905116166001600160601b0360a01b8754161786556001860190518051906001600160401b0382116107535761061d826106178554611d08565b85611fc7565b602090601f83116001146106d157936006969361066c5f5160206126055f395f51905f529e9f94806106a29d9c9b9995610699995f926106c6575b50508160011b915f199060031b1c19161790565b90555b516002880155516003870155516004860155511515600585019060ff801983541691151516179055565b51910155612016565b6106b960405192839260408452604084019161205b565b6103e860208301520390a2005b015190505f80610658565b90601f19831691845f52815f20925f5b81811061073b57505f5160206126055f395f51905f529e9f946106a29c9b9a9894610699989460069b98948360019510610723575b505050811b01905561066f565b01515f1960f88460031b161c191690555f8080610716565b929360206001819287860151815501950193016106e1565b634e487b7160e01b5f52604160045260245ffd5b346101d25760203660031901126101d257600435610788600354821061207b565b5f52600260205260ff602060405f206101ce60018201549160018060a01b036003820154169260018060a01b03600483015416600583015460068401549060078501549261082660026108136009890154976107f58e600a8c0154169a61023e6040518096819301611d40565b6040516001600160a01b03821681529d8e9d8e019160a01c16611e18565b61014060408c01526101408b0190611e25565b9760608a0152608089015260a088015260c087015260e0860152610100850152610120840190611e49565b346101d2575f3660031901126101d2576020604051610e108152f35b346101d2575f3660031901126101d257602060405160148152f35b346101d2575f3660031901126101d25760206040516113ec8152f35b346101d2575f3660031901126101d2576101ce6040516108c5604082611df7565b600b81526a13dc9a5bdb8815985d5b1d60aa1b6020820152604051918291602083526020830190611e25565b346101d25760203660031901126101d2576004356006548110156101d2576006548110156109555760065f527ff652222313e28459528d920b65115c16c04f3efc82aaedc97be59f3f377c0d3f01546040516001600160a01b039091168152602090f35b634e487b7160e01b5f52603260045260245ffd5b346101d25760c03660031901126101d25760043560048110156101d2576024356001600160401b0381116101d2576109a5903690600401611e98565b6044356001600160a01b03811681036101d2576064356001600160a01b03811693908490036101d25760843560a4356001600160401b0381116101d2576109f0903690600401611e98565b9091335f525f602052610a0c60ff600560405f200154166121c3565b8515610d8d578715610cc8575b60035496610a268861219e565b6003555f88815260026020819052604090912089815560018101805460ff60a01b1933166001600160a81b03199091161760a08d901b60ff60a01b16179055969087016001600160401b03891161075357610a8b89610a858354611d08565b83611fc7565b5f89601f8111600114610c645780610ab7925f91610c59575b508160011b915f199060031b1c19161790565b90555b600387019060018060a01b03166001600160601b0360a01b82541617905560048601906001600160601b0360a01b8254161790556005850155600b8401916001600160401b03821161075357610b14826106178554611d08565b5f90601f8311600114610bf557610b4192915f9183610bea5750508160011b915f199060031b1c19161790565b90555b426008830155610e104201804211610bd657602095610bcb7f8356bc5007056a642094f44da4e8e22469db3e8a36b5811c0f91f735f1491c7993600a86610bb99560098b9901550160ff198154169055335f525f8952600360405f2001610bab815461219e565b905560405193848094611e18565b6040898401523396604084019161205b565b0390a3604051908152f35b634e487b7160e01b5f52601160045260245ffd5b013590508980610658565b601f19831691845f5260205f20925f5b818110610c415750908460019594939210610c28575b505050811b019055610b44565b01355f19600384901b60f8161c19169055888080610c1b565b91936020600181928787013581550195019201610c05565b90508901358e610aa4565b50601f198a1690825f528a60205f20925f5b8b828210610cae57505010610c95575b5050600189811b019055610aba565b8801355f1960038c901b60f8161c191690558b80610c86565b84013585556001909401936020938401938e935001610c76565b86151580610d84575b15610d3f57865f526005602052610cee60ff60405f2054166120bc565b865f5260076020528060405f20541015610a195760405162461bcd60e51b8152602060048201526015602482015274496e73756666696369656e7420747265617375727960581b6044820152606490fd5b60405162461bcd60e51b815260206004820152601760248201527f496e76616c6964207472616e7366657220706172616d730000000000000000006044820152606490fd5b50801515610cd1565b60405162461bcd60e51b815260206004820152601160248201527022b6b83a3c903232b9b1b934b83a34b7b760791b6044820152606490fd5b346101d2575f3660031901126101d2576020600154604051908152f35b346101d2575f3660031901126101d2575f5f600154905b818110610ec05750610e0b826121ac565b91610e196040519384611df7565b808352610e28601f19916121ac565b013660208401375f5f5b828110610e4757604051806101ce8682611e56565b610e5081611ec5565b60018060a01b0391549060031b1c165f525f60205260ff600560405f20015416610e7d575b600101610e32565b90610e8782611ec5565b905460039190911b1c6001600160a01b031691610ea38261219e565b92855183101561095557602060019360051b870101529050610e75565b610ec981611ec5565b60018060a01b0391549060031b1c165f525f60205260ff600560405f20015416610ef6575b600101610dfa565b91610f0260019161219e565b929050610eee565b346101d25760203660031901126101d257610f23611ef2565b610f57337f00000000000000000000000000000000000000000000000000000000000000006001600160a01b031614612163565b6001600160a01b03165f8181526005602052604090205460ff16610fef57805f52600560205260405f20600160ff19825416179055600654600160401b81101561075357806001610fad92016006556006611edd565b81546001600160a01b0360039290921b91821b19169083901b1790557f784c8f4dbf0ffedd6e72c76501c545a70f8b203b30a26ce542bf92ba87c248a45f80a2005b60405162461bcd60e51b8152602060048201526011602482015270105b1c9958591e481cdd5c1c1bdc9d1959607a1b6044820152606490fd5b346101d25760203660031901126101d2576001600160a01b03611049611ef2565b165f526005602052602060ff60405f2054166040519015158152f35b346101d25760203660031901126101d257600435611086600354821061207b565b61108e612205565b805f52600260205260405f20600a81019060ff82541660058110156104c0576110b7901561210b565b60098101544211156114ae576110d660076006830154920154826120fe565b6110de61223d565b8061148557505f915b8161145c5750505f5b81611454575b501561142057600160ff19825416179055805f52600260205260405f206001810160ff815460a01c1660048110156104c057806112d357506004820180546001600160a01b03165f81815260076020526040902054600585018054959293909186116112975761125895600a945f52600760205261117960405f209182546122d4565b90558054600384018054845491937fd1c19fbcd4551a5edfb66d43d2e337c04837afda3482b42bdf569a8fccdae5fb9360209391926111c592916001600160a01b039182169116612435565b8054845486546040516112209390926001600160a01b0390811691166111ea84611ddc565b83528583015260408201524260608201526040516112168161120f8160028d01611d40565b0382611df7565b60808201526122e1565b54925493546040519081526001600160a01b039485169490931692a35b01805460ff19166003179055546001600160a01b0316612575565b7f948f4a9cd986f1118c3fbd459f7a22b23c0693e1ca3ef06a6a8be5aa7d39cc03602060405160018152a25b60015f5160206126255f395f51905f5255005b60405162461bcd60e51b8152602060048201526014602482015273496e73756666696369656e742062616c616e636560601b6044820152606490fd5b6002810361131c5750600382015460405161125893600a929091611317916001600160a01b03166113128261130b8160028801611d40565b0383611df7565b6124ad565b61123d565b60011461132f575b600a6112589261123d565b600b820161133d8154611d08565b611348575b50611324565b61135b61120f9160405192838092611d40565b6060818051810103126101d257611258928161137b6020600a94016122c0565b90606061138a604083016122c0565b9101516001600160a01b039283165f8181526007602052604090205493909216928111156113bd575b5050509250611342565b61141892825f52600760205260405f206113d88382546122d4565b90556113e5828285612435565b604051926113f284611ddc565b8352602083015260408201524260608201526040516112168161120f8160028801611d40565b8580806113b3565b805460ff191660021790557fd92fba445edb3153b571e6df782d7a66fd0ce668519273670820ee3a86da0ef45f80a2611284565b9050836110f6565b6127108102908082046127101490151715610bd6576113ec9161147e91612145565b10156110f0565b61271082028281046127101483151715610bd6576113ec916114a691612145565b1015916110e7565b60405162461bcd60e51b8152602060048201526013602482015272566f74696e67207374696c6c2061637469766560681b6044820152606490fd5b346101d25760203660031901126101d2576001600160a01b0361150a611ef2565b165f526007602052602060405f2054604051908152f35b346101d2575f3660031901126101d25760206040516103e88152f35b346101d25760403660031901126101d257611556611ef2565b60243590611562612205565b6001600160a01b03165f818152600560205260409020546115859060ff166120bc565b8115611653576040516323b872dd60e01b5f5233600452306024528260445260205f60648180865af19060015f5114821615611632575b6040525f6060521561162057805f52600760205260405f206115df8382546120fe565b90556040519182527f8752a472e571a816aea92eec8dae9baf628e840f4929fbcc2d155e6233ff68a760203393a360015f5160206126255f395f51905f5255005b635274afe760e01b5f5260045260245ffd5b90600181151661164a57823b15153d151616906115bc565b503d5f823e3d90fd5b60405162461bcd60e51b815260206004820152600b60248201526a16995c9bc8185b5bdd5b9d60aa1b6044820152606490fd5b346101d25760203660031901126101d25760406004356116a9600354821061207b565b805f5260026020526006825f200154905f5260026020526007825f20015482519182526020820152f35b346101d25760203660031901126101d2576004356004548110156101d2576004548110156109555760045f526005027f8a35acfbc15ff81a39ae7d344fd709f28e8600b4aa8c65c6b64bfe7fe36bd19b8101547f8a35acfbc15ff81a39ae7d344fd709f28e8600b4aa8c65c6b64bfe7fe36bd19c8201547f8a35acfbc15ff81a39ae7d344fd709f28e8600b4aa8c65c6b64bfe7fe36bd19d8301547f8a35acfbc15ff81a39ae7d344fd709f28e8600b4aa8c65c6b64bfe7fe36bd19e8401546040516001600160a01b039384169594909316936101ce9392906117df90849061023e9082907f8a35acfbc15ff81a39ae7d344fd709f28e8600b4aa8c65c6b64bfe7fe36bd19f01611d40565b604051958695865260208601526040850152606084015260a0608084015260a0830190611e25565b346101d25760403660031901126101d2576024356004356001600160a01b03821682036101d25761183b600354821061207b565b5f526002602052600c60405f20019060018060a01b03165f52602052602060ff60405f2054166040519015158152f35b346101d25760203660031901126101d25760043561188c600354821061207b565b5f526002602052602060ff600a60405f200154166118ad6040518092611e49565bf35b346101d2575f3660031901126101d257602060405160c88152f35b346101d25760203660031901126101d2576004356001548110156101d2576118f3602091611ec5565b905460405160039290921b1c6001600160a01b03168152f35b346101d25760203660031901126101d2576004356001600160401b0381116101d25761193c903690600401611e98565b90335f525f60205261195860ff600560405f2001541615611f08565b611966601460015410611f49565b81151580611b44575b15611b105760405161198081611dc1565b33815261198e368484611f82565b60208201908152604082016103e88152606083015f815260808401905f825260a08501926001845260c0860194428652335f525f60205260405f209660018060a01b039060018060a01b03905116166001600160601b0360a01b8854161787556001870190518051906001600160401b03821161075357611a13826106178554611d08565b602090601f8311600114611a905793611a7f99979361066c84600699955f5160206126055f395f51905f529e9c9995611a60995f926106c65750508160011b915f199060031b1c19161790565b51910155611a6d33612016565b6040519360408552604085019161205b565b916103e860208201528033930390a2005b90601f19831691845f52815f20925f5b818110611af85750845f5160206126055f395f51905f529d9b9894611a609894611a7f9e9c989460069c9860019510611ae057505050811b01905561066f565b01515f1960f88460031b161c191690558f8080610716565b92936020600181928786015181550195019301611aa0565b60405162461bcd60e51b815260206004820152600c60248201526b496e76616c6964206e616d6560a01b6044820152606490fd5b50602082111561196f565b346101d2575f3660031901126101d25760405180602060065491828152019060065f527ff652222313e28459528d920b65115c16c04f3efc82aaedc97be59f3f377c0d3f905f5b818110611bb9576101ce85611bad81870382611df7565b60405191829182611e56565b82546001600160a01b0316845260209093019260019283019201611b96565b346101d25760203660031901126101d2576004355f52600260205260405f2080549060018101549280806002840190611c1091611d40565b03611c1b9082611df7565b600160a01b6001900360038301541690600160a01b6001900360048401541660058401546006850154600786015490600887015492600988015494600a89015460ff169660405180600b819c0190611c7291611d40565b03611c7d908b611df7565b6040519b8c9b8c52600160a01b60019003811660208d015260408c019060a01c60ff1690611caa91611e18565b60608b016101a090526101a08b01611cc191611e25565b9760808b015260a08a015260c089015260e08801526101008701526101208601526101408501526101608401611cf691611e49565b8281036101808401526101ce91611e25565b90600182811c92168015611d36575b6020831014611d2257565b634e487b7160e01b5f52602260045260245ffd5b91607f1691611d17565b5f9291815491611d4f83611d08565b8083529260018116908115611da45750600114611d6b57505050565b5f9081526020812093945091925b838310611d8a575060209250010190565b600181602092949394548385870101520191019190611d79565b915050602093945060ff929192191683830152151560051b010190565b60e081019081106001600160401b0382111761075357604052565b60a081019081106001600160401b0382111761075357604052565b90601f801991011681019081106001600160401b0382111761075357604052565b9060048210156104c05752565b805180835260209291819084018484015e5f828201840152601f01601f1916010190565b9060058210156104c05752565b60206040818301928281528451809452019201905f5b818110611e795750505090565b82516001600160a01b0316845260209384019390920191600101611e6c565b9181601f840112156101d2578235916001600160401b0383116101d257602083818601950101116101d257565b6001548110156109555760015f5260205f2001905f90565b8054821015610955575f5260205f2001905f90565b600435906001600160a01b03821682036101d257565b15611f0f57565b60405162461bcd60e51b8152602060048201526012602482015271105b1c9958591e481c9959da5cdd195c995960721b6044820152606490fd5b15611f5057565b60405162461bcd60e51b815260206004820152600a60248201526914ddd85c9b48199d5b1b60b21b6044820152606490fd5b9291926001600160401b0382116107535760405191611fab601f8201601f191660200184611df7565b8294818452818301116101d2578281602093845f960137010152565b601f8211611fd457505050565b5f5260205f20906020601f840160051c8301931061200c575b601f0160051c01905b818110612001575050565b5f8155600101611ff6565b9091508190611fed565b600154600160401b8110156107535780600161203792016001556001611edd565b81546001600160a01b0393841660039290921b91821b9390911b1916919091179055565b908060209392818452848401375f828201840152601f01601f1916010190565b1561208257565b60405162461bcd60e51b8152602060048201526012602482015271141c9bdc1bdcd85b081b9bdd08199bdd5b9960721b6044820152606490fd5b156120c357565b60405162461bcd60e51b8152602060048201526013602482015272151bdad95b881b9bdd081cdd5c1c1bdc9d1959606a1b6044820152606490fd5b91908201809211610bd657565b1561211257565b60405162461bcd60e51b815260206004820152600b60248201526a4e6f742070656e64696e6760a81b6044820152606490fd5b811561214f570490565b634e487b7160e01b5f52601260045260245ffd5b1561216a57565b60405162461bcd60e51b815260206004820152600c60248201526b2737ba103232b83637bcb2b960a11b6044820152606490fd5b5f198114610bd65760010190565b6001600160401b0381116107535760051b60200190565b156121ca57565b60405162461bcd60e51b8152602060048201526013602482015272139bdd08185b881858dd1a5d99481859d95b9d606a1b6044820152606490fd5b60025f5160206126255f395f51905f52541461222e5760025f5160206126255f395f51905f5255565b633ee5aeb560e01b5f5260045ffd5b5f905f600154905b818110612250575050565b61225981611ec5565b60018060a01b0391549060031b1c165f525f60205260ff600560405f20015416612286575b600101612245565b926122b860019161229686611ec5565b848060a01b0391549060031b1c165f525f602052600260405f200154906120fe565b93905061227e565b51906001600160a01b03821682036101d257565b91908203918211610bd657565b90600454600160401b81101561075357600181016004556004548110156109555760045f526005027f8a35acfbc15ff81a39ae7d344fd709f28e8600b4aa8c65c6b64bfe7fe36bd19b01825181546001600160a01b03199081166001600160a01b039283161783556020850151600184018054909216921691909117905560408301516002820155606083015160038201556080929092015180519092600401906001600160401b038111610753576123a48161239e8454611d08565b84611fc7565b6020601f82116001146123d75781906123d39394955f926106c65750508160011b915f199060031b1c19161790565b9055565b601f19821690835f52805f20915f5b81811061241d57509583600195969710612405575b505050811b019055565b01515f1960f88460031b161c191690555f80806123fb565b9192602060018192868b0151815501940192016123e6565b916040519163a9059cbb60e01b5f5260018060a01b031660045260245260205f60448180865af19060015f5114821615612495575b604052156124755750565b635274afe760e01b5f9081526001600160a01b0391909116600452602490fd5b90600181151661164a57823b15153d1516169061246a565b60018060a01b031690815f525f60205260405f206005810180549160ff83161561256e576002019160c88354115f14612539575050805460c719810192908311610bd6577ff90d547af41b84ae5db3dc86fac677444898b3350b3e9cccd482dea1274bfc959261253492555b60405191829160c88352604060208401526040830190611e25565b0390a2565b907ff90d547af41b84ae5db3dc86fac677444898b3350b3e9cccd482dea1274bfc9593915f612534945560ff19169055612519565b5050505050565b6001600160a01b03165f818152602081905260409020600581015460ff161561260057600281019081549160648301809311610bd657612710836004948355116125f5575b50016125c6815461219e565b90557fbfb306f49a3ca3a1839ee1fc46a4a5ab81b7c33d1c79e28b78c06202c11abc3c602060405160648152a2565b61271090555f6125ba565b505056fe023c5efe572c42192271951adb0e77f97d7fc84bc761d026189ac086173468249b779b17422d0df92223018b32b4d1fa46e071723d6817e2486d003becc55f00a26469706673582212208afa0589701dcd1946baa5af8755443863076b494344d05368e966fba61246c464736f6c634300081d0033","linkReferences":{}},"methodIdentifiers":{"BASE_REPUTATION()":"4f2b0d4a","MAX_AGENTS()":"ab30be87","NAME()":"a3f4df7e","QUORUM_BPS()":"a8b21c1b","REWARD_AMOUNT()":"cf849442","SLASH_AMOUNT()":"37720606","VERSION()":"ffa1ad74","VOTING_PERIOD()":"b1610d7e","addSupportedToken(address)":"6d69fcaf","agentList(uint256)":"2f80c54f","agents(address)":"fd66091e","allocationHistory(uint256)":"4484aa7d","bootstrapAgent(address,string)":"c9479cf2","deployer()":"d5f39488","deposit(address,uint256)":"47e7ef24","finalizeProposal(uint256)":"5652077c","getActiveAgents()":"86b909fd","getAgentCount()":"91cab63e","getAllocationHistoryLength()":"ff57ed06","getProposalInfo(uint256)":"bc903cb8","getProposalStatus(uint256)":"401853b7","getProposalVotes(uint256)":"47c66140","getTokenList()":"273cbaa0","hasVoted(uint256,address)":"43859632","proposalCount()":"da35c664","proposals(uint256)":"013cf08b","propose(uint8,string,address,address,uint256,bytes)":"956cbab2","registerAgent(string)":"2d2a9585","supportedTokens(address)":"68c4ac26","tokenList(uint256)":"9ead7222","totalReputation()":"e5835241","treasuryBalance(address)":"54445ae6","vote(uint256,bool)":"c9d27afe"},"id":34}